{
  "contractName": "Quiz",
  "abi": [
    {
      "inputs": [],
      "payable": false,
      "stateMutability": "nonpayable",
      "type": "constructor"
    },
    {
      "anonymous": false,
      "inputs": [
        {
          "indexed": true,
          "internalType": "uint256",
          "name": "_candidateId",
          "type": "uint256"
        }
      ],
      "name": "votedEvent",
      "type": "event"
    },
    {
      "constant": true,
      "inputs": [
        {
          "internalType": "uint256",
          "name": "",
          "type": "uint256"
        }
      ],
      "name": "candidates1",
      "outputs": [
        {
          "internalType": "uint256",
          "name": "id",
          "type": "uint256"
        },
        {
          "internalType": "string",
          "name": "name",
          "type": "string"
        },
        {
          "internalType": "uint256",
          "name": "voteCount",
          "type": "uint256"
        }
      ],
      "payable": false,
      "stateMutability": "view",
      "type": "function"
    },
    {
      "constant": true,
      "inputs": [
        {
          "internalType": "uint256",
          "name": "",
          "type": "uint256"
        }
      ],
      "name": "candidates2",
      "outputs": [
        {
          "internalType": "uint256",
          "name": "id",
          "type": "uint256"
        },
        {
          "internalType": "string",
          "name": "name",
          "type": "string"
        },
        {
          "internalType": "uint256",
          "name": "voteCount",
          "type": "uint256"
        }
      ],
      "payable": false,
      "stateMutability": "view",
      "type": "function"
    },
    {
      "constant": true,
      "inputs": [
        {
          "internalType": "uint256",
          "name": "",
          "type": "uint256"
        }
      ],
      "name": "candidates3",
      "outputs": [
        {
          "internalType": "uint256",
          "name": "id",
          "type": "uint256"
        },
        {
          "internalType": "string",
          "name": "name",
          "type": "string"
        },
        {
          "internalType": "uint256",
          "name": "voteCount",
          "type": "uint256"
        }
      ],
      "payable": false,
      "stateMutability": "view",
      "type": "function"
    },
    {
      "constant": true,
      "inputs": [
        {
          "internalType": "uint256",
          "name": "",
          "type": "uint256"
        }
      ],
      "name": "candidates4",
      "outputs": [
        {
          "internalType": "uint256",
          "name": "id",
          "type": "uint256"
        },
        {
          "internalType": "string",
          "name": "name",
          "type": "string"
        },
        {
          "internalType": "uint256",
          "name": "voteCount",
          "type": "uint256"
        }
      ],
      "payable": false,
      "stateMutability": "view",
      "type": "function"
    },
    {
      "constant": true,
      "inputs": [
        {
          "internalType": "uint256",
          "name": "",
          "type": "uint256"
        }
      ],
      "name": "candidates5",
      "outputs": [
        {
          "internalType": "uint256",
          "name": "id",
          "type": "uint256"
        },
        {
          "internalType": "string",
          "name": "name",
          "type": "string"
        },
        {
          "internalType": "uint256",
          "name": "voteCount",
          "type": "uint256"
        }
      ],
      "payable": false,
      "stateMutability": "view",
      "type": "function"
    },
    {
      "constant": true,
      "inputs": [],
      "name": "candidatesCount",
      "outputs": [
        {
          "internalType": "uint256",
          "name": "",
          "type": "uint256"
        }
      ],
      "payable": false,
      "stateMutability": "view",
      "type": "function"
    },
    {
      "constant": true,
      "inputs": [
        {
          "internalType": "address",
          "name": "",
          "type": "address"
        }
      ],
      "name": "voters1",
      "outputs": [
        {
          "internalType": "bool",
          "name": "",
          "type": "bool"
        }
      ],
      "payable": false,
      "stateMutability": "view",
      "type": "function"
    },
    {
      "constant": true,
      "inputs": [
        {
          "internalType": "address",
          "name": "",
          "type": "address"
        }
      ],
      "name": "voters2",
      "outputs": [
        {
          "internalType": "bool",
          "name": "",
          "type": "bool"
        }
      ],
      "payable": false,
      "stateMutability": "view",
      "type": "function"
    },
    {
      "constant": true,
      "inputs": [
        {
          "internalType": "address",
          "name": "",
          "type": "address"
        }
      ],
      "name": "voters3",
      "outputs": [
        {
          "internalType": "bool",
          "name": "",
          "type": "bool"
        }
      ],
      "payable": false,
      "stateMutability": "view",
      "type": "function"
    },
    {
      "constant": true,
      "inputs": [
        {
          "internalType": "address",
          "name": "",
          "type": "address"
        }
      ],
      "name": "voters4",
      "outputs": [
        {
          "internalType": "bool",
          "name": "",
          "type": "bool"
        }
      ],
      "payable": false,
      "stateMutability": "view",
      "type": "function"
    },
    {
      "constant": true,
      "inputs": [
        {
          "internalType": "address",
          "name": "",
          "type": "address"
        }
      ],
      "name": "voters5",
      "outputs": [
        {
          "internalType": "bool",
          "name": "",
          "type": "bool"
        }
      ],
      "payable": false,
      "stateMutability": "view",
      "type": "function"
    },
    {
      "constant": false,
      "inputs": [
        {
          "internalType": "uint256",
          "name": "_candidateId",
          "type": "uint256"
        }
      ],
      "name": "vote1",
      "outputs": [],
      "payable": false,
      "stateMutability": "nonpayable",
      "type": "function"
    },
    {
      "constant": false,
      "inputs": [
        {
          "internalType": "uint256",
          "name": "_candidateId",
          "type": "uint256"
        }
      ],
      "name": "vote2",
      "outputs": [],
      "payable": false,
      "stateMutability": "nonpayable",
      "type": "function"
    },
    {
      "constant": false,
      "inputs": [
        {
          "internalType": "uint256",
          "name": "_candidateId",
          "type": "uint256"
        }
      ],
      "name": "vote3",
      "outputs": [],
      "payable": false,
      "stateMutability": "nonpayable",
      "type": "function"
    },
    {
      "constant": false,
      "inputs": [
        {
          "internalType": "uint256",
          "name": "_candidateId",
          "type": "uint256"
        }
      ],
      "name": "vote4",
      "outputs": [],
      "payable": false,
      "stateMutability": "nonpayable",
      "type": "function"
    },
    {
      "constant": false,
      "inputs": [
        {
          "internalType": "uint256",
          "name": "_candidateId",
          "type": "uint256"
        }
      ],
      "name": "vote5",
      "outputs": [],
      "payable": false,
      "stateMutability": "nonpayable",
      "type": "function"
    }
  ],
  "bytecode": "0x60806040523480156200001157600080fd5b50620000586040518060400160405280600b81526020017f43616e6469646174652031000000000000000000000000000000000000000000815250620002d460201b60201c565b6200009e6040518060400160405280600b81526020017f43616e6469646174652032000000000000000000000000000000000000000000815250620002d460201b60201c565b620000e46040518060400160405280600b81526020017f43616e64696461746520310000000000000000000000000000000000000000008152506200035260201b60201c565b6200012a6040518060400160405280600b81526020017f43616e64696461746520320000000000000000000000000000000000000000008152506200035260201b60201c565b620001706040518060400160405280600b81526020017f43616e6469646174652031000000000000000000000000000000000000000000815250620003d060201b60201c565b620001b66040518060400160405280600b81526020017f43616e6469646174652032000000000000000000000000000000000000000000815250620003d060201b60201c565b620001fc6040518060400160405280600b81526020017f43616e64696461746520310000000000000000000000000000000000000000008152506200044e60201b60201c565b620002426040518060400160405280600b81526020017f43616e64696461746520320000000000000000000000000000000000000000008152506200044e60201b60201c565b620002886040518060400160405280600b81526020017f43616e6469646174652031000000000000000000000000000000000000000000815250620004cc60201b60201c565b620002ce6040518060400160405280600b81526020017f43616e6469646174652032000000000000000000000000000000000000000000815250620004cc60201b60201c565b620005f9565b600a600081548092919060010191905055506040518060600160405280600a548152602001828152602001600081525060056000600a548152602001908152602001600020600082015181600001556020820151816001019080519060200190620003419291906200054a565b506040820151816002015590505050565b600a600081548092919060010191905055506040518060600160405280600a548152602001828152602001600081525060066000600a548152602001908152602001600020600082015181600001556020820151816001019080519060200190620003bf9291906200054a565b506040820151816002015590505050565b600a600081548092919060010191905055506040518060600160405280600a548152602001828152602001600081525060076000600a5481526020019081526020016000206000820151816000015560208201518160010190805190602001906200043d9291906200054a565b506040820151816002015590505050565b600a600081548092919060010191905055506040518060600160405280600a548152602001828152602001600081525060086000600a548152602001908152602001600020600082015181600001556020820151816001019080519060200190620004bb9291906200054a565b506040820151816002015590505050565b600a600081548092919060010191905055506040518060600160405280600a548152602001828152602001600081525060096000600a548152602001908152602001600020600082015181600001556020820151816001019080519060200190620005399291906200054a565b506040820151816002015590505050565b828054600181600116156101000203166002900490600052602060002090601f016020900481019282601f106200058d57805160ff1916838001178555620005be565b82800160010185558215620005be579182015b82811115620005bd578251825591602001919060010190620005a0565b5b509050620005cd9190620005d1565b5090565b620005f691905b80821115620005f2576000816000905550600101620005d8565b5090565b90565b61119f80620006096000396000f3fe608060405234801561001057600080fd5b50600436106100ff5760003560e01c80633ac25af81161009757806350c9a9901161006657806350c9a990146105975780637bdb46b51461064c578063b79421621461067a578063bb293bf41461072f576100ff565b80633ac25af8146104585780633effeb08146104865780634dadf7d91461053b5780634ee5544c14610569576100ff565b8063275474c6116100d3578063275474c6146102cd5780632979d124146103295780632b6772d2146103de5780632d35a8a21461043a576100ff565b806292af1b1461010457806307e6dadd1461016057806315f8e40b146101bc57806323c7eef814610218575b600080fd5b6101466004803603602081101561011a57600080fd5b81019080803573ffffffffffffffffffffffffffffffffffffffff16906020019092919050505061075d565b604051808215151515815260200191505060405180910390f35b6101a26004803603602081101561017657600080fd5b81019080803573ffffffffffffffffffffffffffffffffffffffff16906020019092919050505061077d565b604051808215151515815260200191505060405180910390f35b6101fe600480360360208110156101d257600080fd5b81019080803573ffffffffffffffffffffffffffffffffffffffff16906020019092919050505061079d565b604051808215151515815260200191505060405180910390f35b6102446004803603602081101561022e57600080fd5b81019080803590602001909291905050506107bd565b6040518084815260200180602001838152602001828103825284818151815260200191508051906020019080838360005b83811015610290578082015181840152602081019050610275565b50505050905090810190601f1680156102bd5780820380516001836020036101000a031916815260200191505b5094505050505060405180910390f35b61030f600480360360208110156102e357600080fd5b81019080803573ffffffffffffffffffffffffffffffffffffffff16906020019092919050505061087f565b604051808215151515815260200191505060405180910390f35b6103556004803603602081101561033f57600080fd5b810190808035906020019092919050505061089f565b6040518084815260200180602001838152602001828103825284818151815260200191508051906020019080838360005b838110156103a1578082015181840152602081019050610386565b50505050905090810190601f1680156103ce5780820380516001836020036101000a031916815260200191505b5094505050505060405180910390f35b610420600480360360208110156103f457600080fd5b81019080803573ffffffffffffffffffffffffffffffffffffffff169060200190929190505050610961565b604051808215151515815260200191505060405180910390f35b610442610981565b6040518082815260200191505060405180910390f35b6104846004803603602081101561046e57600080fd5b8101908080359060200190929190505050610987565b005b6104b26004803603602081101561049c57600080fd5b8101908080359060200190929190505050610aa7565b6040518084815260200180602001838152602001828103825284818151815260200191508051906020019080838360005b838110156104fe5780820151818401526020810190506104e3565b50505050905090810190601f16801561052b5780820380516001836020036101000a031916815260200191505b5094505050505060405180910390f35b6105676004803603602081101561055157600080fd5b8101908080359060200190929190505050610b69565b005b6105956004803603602081101561057f57600080fd5b8101908080359060200190929190505050610c87565b005b6105c3600480360360208110156105ad57600080fd5b8101908080359060200190929190505050610da7565b6040518084815260200180602001838152602001828103825284818151815260200191508051906020019080838360005b8381101561060f5780820151818401526020810190506105f4565b50505050905090810190601f16801561063c5780820380516001836020036101000a031916815260200191505b5094505050505060405180910390f35b6106786004803603602081101561066257600080fd5b8101908080359060200190929190505050610e69565b005b6106a66004803603602081101561069057600080fd5b8101908080359060200190929190505050610f88565b6040518084815260200180602001838152602001828103825284818151815260200191508051906020019080838360005b838110156106f25780820151818401526020810190506106d7565b50505050905090810190601f16801561071f5780820380516001836020036101000a031916815260200191505b5094505050505060405180910390f35b61075b6004803603602081101561074557600080fd5b810190808035906020019092919050505061104a565b005b60016020528060005260406000206000915054906101000a900460ff1681565b60046020528060005260406000206000915054906101000a900460ff1681565b60036020528060005260406000206000915054906101000a900460ff1681565b6007602052806000526040600020600091509050806000015490806001018054600181600116156101000203166002900480601f01602080910402602001604051908101604052809291908181526020018280546001816001161561010002031660029004801561086f5780601f106108445761010080835404028352916020019161086f565b820191906000526020600020905b81548152906001019060200180831161085257829003601f168201915b5050505050908060020154905083565b60006020528060005260406000206000915054906101000a900460ff1681565b6008602052806000526040600020600091509050806000015490806001018054600181600116156101000203166002900480601f0160208091040260200160405190810160405280929190818152602001828054600181600116156101000203166002900480156109515780601f1061092657610100808354040283529160200191610951565b820191906000526020600020905b81548152906001019060200180831161093457829003601f168201915b5050505050908060020154905083565b60026020528060005260406000206000915054906101000a900460ff1681565b600a5481565b600260003373ffffffffffffffffffffffffffffffffffffffff1673ffffffffffffffffffffffffffffffffffffffff16815260200190815260200160002060009054906101000a900460ff16156109de57600080fd5b6000811180156109f05750600a548111155b6109f957600080fd5b6001600260003373ffffffffffffffffffffffffffffffffffffffff1673ffffffffffffffffffffffffffffffffffffffff16815260200190815260200160002060006101000a81548160ff0219169083151502179055506007600082815260200190815260200160002060020160008154809291906001019190505550807ffff3c900d938d21d0990d786e819f29b8d05c1ef587b462b939609625b684b1660405160405180910390a250565b6005602052806000526040600020600091509050806000015490806001018054600181600116156101000203166002900480601f016020809104026020016040519081016040528092919081815260200182805460018160011615610100020316600290048015610b595780601f10610b2e57610100808354040283529160200191610b59565b820191906000526020600020905b815481529060010190602001808311610b3c57829003601f168201915b5050505050908060020154905083565b6000803373ffffffffffffffffffffffffffffffffffffffff1673ffffffffffffffffffffffffffffffffffffffff16815260200190815260200160002060009054906101000a900460ff1615610bbf57600080fd5b600081118015610bd15750600a548111155b610bda57600080fd5b60016000803373ffffffffffffffffffffffffffffffffffffffff1673ffffffffffffffffffffffffffffffffffffffff16815260200190815260200160002060006101000a81548160ff0219169083151502179055506005600082815260200190815260200160002060020160008154809291906001019190505550807ffff3c900d938d21d0990d786e819f29b8d05c1ef587b462b939609625b684b1660405160405180910390a250565b600460003373ffffffffffffffffffffffffffffffffffffffff1673ffffffffffffffffffffffffffffffffffffffff16815260200190815260200160002060009054906101000a900460ff1615610cde57600080fd5b600081118015610cf05750600a548111155b610cf957600080fd5b6001600460003373ffffffffffffffffffffffffffffffffffffffff1673ffffffffffffffffffffffffffffffffffffffff16815260200190815260200160002060006101000a81548160ff0219169083151502179055506009600082815260200190815260200160002060020160008154809291906001019190505550807ffff3c900d938d21d0990d786e819f29b8d05c1ef587b462b939609625b684b1660405160405180910390a250565b6009602052806000526040600020600091509050806000015490806001018054600181600116156101000203166002900480601f016020809104026020016040519081016040528092919081815260200182805460018160011615610100020316600290048015610e595780601f10610e2e57610100808354040283529160200191610e59565b820191906000526020600020905b815481529060010190602001808311610e3c57829003601f168201915b5050505050908060020154905083565b600160003373ffffffffffffffffffffffffffffffffffffffff1673ffffffffffffffffffffffffffffffffffffffff16815260200190815260200160002060009054906101000a900460ff1615610ec057600080fd5b600081118015610ed25750600a548111155b610edb57600080fd5b60018060003373ffffffffffffffffffffffffffffffffffffffff1673ffffffffffffffffffffffffffffffffffffffff16815260200190815260200160002060006101000a81548160ff0219169083151502179055506006600082815260200190815260200160002060020160008154809291906001019190505550807ffff3c900d938d21d0990d786e819f29b8d05c1ef587b462b939609625b684b1660405160405180910390a250565b6006602052806000526040600020600091509050806000015490806001018054600181600116156101000203166002900480601f01602080910402602001604051908101604052809291908181526020018280546001816001161561010002031660029004801561103a5780601f1061100f5761010080835404028352916020019161103a565b820191906000526020600020905b81548152906001019060200180831161101d57829003601f168201915b5050505050908060020154905083565b600360003373ffffffffffffffffffffffffffffffffffffffff1673ffffffffffffffffffffffffffffffffffffffff16815260200190815260200160002060009054906101000a900460ff16156110a157600080fd5b6000811180156110b35750600a548111155b6110bc57600080fd5b6001600360003373ffffffffffffffffffffffffffffffffffffffff1673ffffffffffffffffffffffffffffffffffffffff16815260200190815260200160002060006101000a81548160ff0219169083151502179055506008600082815260200190815260200160002060020160008154809291906001019190505550807ffff3c900d938d21d0990d786e819f29b8d05c1ef587b462b939609625b684b1660405160405180910390a25056fea265627a7a7231582085674542f02d15d790675d9a02da8131fcdf122852d6769fd84ef7ce8dc1189264736f6c63430005100032",
  "source": "pragma solidity ^0.5.16;\r\n\r\ncontract Quiz {\r\n    // Model 5 Questions\r\n    struct Candidate1 {\r\n        uint id;\r\n        string name;\r\n        uint voteCount;\r\n    }\r\n\r\n    struct Candidate2 {\r\n        uint id;\r\n        string name;\r\n        uint voteCount;\r\n    }\r\n\r\n    struct Candidate3 {\r\n        uint id;\r\n        string name;\r\n        uint voteCount;\r\n    }\r\n\r\n    struct Candidate4 {\r\n        uint id;\r\n        string name;\r\n        uint voteCount;\r\n    }\r\n\r\n    struct Candidate5 {\r\n        uint id;\r\n        string name;\r\n        uint voteCount;\r\n    }\r\n\r\n    //Store accounts that have voted\r\n    mapping(address => bool) public voters1;\r\n    mapping(address => bool) public voters2;\r\n    mapping(address => bool) public voters3;\r\n    mapping(address => bool) public voters4;\r\n    mapping(address => bool) public voters5;\r\n    // Fetch Candidate\r\n    mapping(uint => Candidate1) public candidates1;\r\n    mapping(uint => Candidate2) public candidates2;\r\n    mapping(uint => Candidate3) public candidates3;\r\n    mapping(uint => Candidate4) public candidates4;\r\n    mapping(uint => Candidate5) public candidates5;\r\n    // Store Candidates Count\r\n    uint public candidatesCount;\r\n\r\n    //voted event\r\n    event votedEvent(\r\n        uint indexed _candidateId\r\n    );\r\n\r\n    constructor() public {\r\n        addCandidate1(\"Candidate 1\");\r\n        addCandidate1(\"Candidate 2\");\r\n        addCandidate2(\"Candidate 1\");\r\n        addCandidate2(\"Candidate 2\");\r\n        addCandidate3(\"Candidate 1\");\r\n        addCandidate3(\"Candidate 2\");\r\n        addCandidate4(\"Candidate 1\");\r\n        addCandidate4(\"Candidate 2\");\r\n        addCandidate5(\"Candidate 1\");\r\n        addCandidate5(\"Candidate 2\");\r\n    }\r\n\r\n    function addCandidate1 (string memory _name) private {\r\n        candidatesCount ++;\r\n        candidates1[candidatesCount] = Candidate1(candidatesCount, _name, 0);\r\n    }\r\n\r\n    function addCandidate2 (string memory _name) private {\r\n        candidatesCount ++;\r\n        candidates2[candidatesCount] = Candidate2(candidatesCount, _name, 0);\r\n    }\r\n    \r\n    function addCandidate3 (string memory _name) private {\r\n        candidatesCount ++;\r\n        candidates3[candidatesCount] = Candidate3(candidatesCount, _name, 0);\r\n    }\r\n\r\n    function addCandidate4 (string memory _name) private {\r\n        candidatesCount ++;\r\n        candidates4[candidatesCount] = Candidate4(candidatesCount, _name, 0);\r\n    }\r\n\r\n    function addCandidate5 (string memory _name) private {\r\n        candidatesCount ++;\r\n        candidates5[candidatesCount] = Candidate5(candidatesCount, _name, 0);\r\n    }\r\n\r\n    function vote1(uint _candidateId) public {\r\n        // require that they haven't voted before\r\n        require(!voters1[msg.sender]);\r\n\r\n        // require a valid candidate\r\n        require(_candidateId > 0 && _candidateId <= candidatesCount);\r\n\r\n        // record that voter has voted\r\n        voters1[msg.sender] = true;\r\n\r\n        // update candidate vote Count\r\n        candidates1[_candidateId].voteCount ++;\r\n\r\n        // trigger voted event\r\n        emit votedEvent(_candidateId);\r\n    }\r\n\r\n    function vote2(uint _candidateId) public {\r\n        // require that they haven't voted before\r\n        require(!voters2[msg.sender]);\r\n\r\n        // require a valid candidate\r\n        require(_candidateId > 0 && _candidateId <= candidatesCount);\r\n\r\n        // record that voter has voted\r\n        voters2[msg.sender] = true;\r\n\r\n        // update candidate vote Count\r\n        candidates2[_candidateId].voteCount ++;\r\n\r\n        // trigger voted event\r\n        emit votedEvent(_candidateId);\r\n    }\r\n\r\n    function vote3(uint _candidateId) public {\r\n        // require that they haven't voted before\r\n        require(!voters3[msg.sender]);\r\n\r\n        // require a valid candidate\r\n        require(_candidateId > 0 && _candidateId <= candidatesCount);\r\n\r\n        // record that voter has voted\r\n        voters3[msg.sender] = true;\r\n\r\n        // update candidate vote Count\r\n        candidates3[_candidateId].voteCount ++;\r\n\r\n        // trigger voted event\r\n        emit votedEvent(_candidateId);\r\n    }\r\n\r\n    function vote4(uint _candidateId) public {\r\n        // require that they haven't voted before\r\n        require(!voters4[msg.sender]);\r\n\r\n        // require a valid candidate\r\n        require(_candidateId > 0 && _candidateId <= candidatesCount);\r\n\r\n        // record that voter has voted\r\n        voters4[msg.sender] = true;\r\n\r\n        // update candidate vote Count\r\n        candidates4[_candidateId].voteCount ++;\r\n\r\n        // trigger voted event\r\n        emit votedEvent(_candidateId);\r\n    }\r\n\r\n    function vote5(uint _candidateId) public {\r\n        // require that they haven't voted before\r\n        require(!voters5[msg.sender]);\r\n\r\n        // require a valid candidate\r\n        require(_candidateId > 0 && _candidateId <= candidatesCount);\r\n\r\n        // record that voter has voted\r\n        voters5[msg.sender] = true;\r\n\r\n        // update candidate vote Count\r\n        candidates5[_candidateId].voteCount ++;\r\n\r\n        // trigger voted event\r\n        emit votedEvent(_candidateId);\r\n    }\r\n}\r\n",
  "sourcePath": "D:\\Coding Projects\\Polling-App\\contracts\\Quiz.sol",
  "compiler": {
    "name": "solc",
    "version": "0.5.16+commit.9c3226ce.Emscripten.clang"
  },
  "schemaVersion": "3.4.10",
  "updatedAt": "2022-10-08T17:20:53.218Z",
  "networkType": "ethereum",
  "devdoc": {
    "methods": {}
  },
  "userdoc": {
    "methods": {}
  }
}