{
  "contractName": "Quiz",
  "abi": [
    {
      "inputs": [],
      "payable": false,
      "stateMutability": "nonpayable",
      "type": "constructor"
    },
    {
      "anonymous": false,
      "inputs": [
        {
          "indexed": true,
          "internalType": "uint256",
          "name": "_answerId",
          "type": "uint256"
        }
      ],
      "name": "votedEvent",
      "type": "event"
    },
    {
      "constant": true,
      "inputs": [],
      "name": "NoOfScores",
      "outputs": [
        {
          "internalType": "uint256",
          "name": "",
          "type": "uint256"
        }
      ],
      "payable": false,
      "stateMutability": "view",
      "type": "function"
    },
    {
      "constant": true,
      "inputs": [
        {
          "internalType": "uint256",
          "name": "",
          "type": "uint256"
        }
      ],
      "name": "answers1",
      "outputs": [
        {
          "internalType": "uint256",
          "name": "id",
          "type": "uint256"
        },
        {
          "internalType": "string",
          "name": "name",
          "type": "string"
        },
        {
          "internalType": "uint256",
          "name": "voteCount",
          "type": "uint256"
        }
      ],
      "payable": false,
      "stateMutability": "view",
      "type": "function"
    },
    {
      "constant": true,
      "inputs": [
        {
          "internalType": "uint256",
          "name": "",
          "type": "uint256"
        }
      ],
      "name": "answers2",
      "outputs": [
        {
          "internalType": "uint256",
          "name": "id",
          "type": "uint256"
        },
        {
          "internalType": "string",
          "name": "name",
          "type": "string"
        },
        {
          "internalType": "uint256",
          "name": "voteCount",
          "type": "uint256"
        }
      ],
      "payable": false,
      "stateMutability": "view",
      "type": "function"
    },
    {
      "constant": true,
      "inputs": [
        {
          "internalType": "uint256",
          "name": "",
          "type": "uint256"
        }
      ],
      "name": "answers3",
      "outputs": [
        {
          "internalType": "uint256",
          "name": "id",
          "type": "uint256"
        },
        {
          "internalType": "string",
          "name": "name",
          "type": "string"
        },
        {
          "internalType": "uint256",
          "name": "voteCount",
          "type": "uint256"
        }
      ],
      "payable": false,
      "stateMutability": "view",
      "type": "function"
    },
    {
      "constant": true,
      "inputs": [
        {
          "internalType": "uint256",
          "name": "",
          "type": "uint256"
        }
      ],
      "name": "answers4",
      "outputs": [
        {
          "internalType": "uint256",
          "name": "id",
          "type": "uint256"
        },
        {
          "internalType": "string",
          "name": "name",
          "type": "string"
        },
        {
          "internalType": "uint256",
          "name": "voteCount",
          "type": "uint256"
        }
      ],
      "payable": false,
      "stateMutability": "view",
      "type": "function"
    },
    {
      "constant": true,
      "inputs": [
        {
          "internalType": "uint256",
          "name": "",
          "type": "uint256"
        }
      ],
      "name": "answers5",
      "outputs": [
        {
          "internalType": "uint256",
          "name": "id",
          "type": "uint256"
        },
        {
          "internalType": "string",
          "name": "name",
          "type": "string"
        },
        {
          "internalType": "uint256",
          "name": "voteCount",
          "type": "uint256"
        }
      ],
      "payable": false,
      "stateMutability": "view",
      "type": "function"
    },
    {
      "constant": true,
      "inputs": [],
      "name": "answersCount",
      "outputs": [
        {
          "internalType": "uint256",
          "name": "",
          "type": "uint256"
        }
      ],
      "payable": false,
      "stateMutability": "view",
      "type": "function"
    },
    {
      "constant": true,
      "inputs": [
        {
          "internalType": "address",
          "name": "",
          "type": "address"
        }
      ],
      "name": "scores",
      "outputs": [
        {
          "internalType": "uint256",
          "name": "uid",
          "type": "uint256"
        },
        {
          "internalType": "address",
          "name": "account",
          "type": "address"
        },
        {
          "internalType": "uint256",
          "name": "scoreCount",
          "type": "uint256"
        }
      ],
      "payable": false,
      "stateMutability": "view",
      "type": "function"
    },
    {
      "constant": true,
      "inputs": [
        {
          "internalType": "address",
          "name": "",
          "type": "address"
        }
      ],
      "name": "voters1",
      "outputs": [
        {
          "internalType": "bool",
          "name": "",
          "type": "bool"
        }
      ],
      "payable": false,
      "stateMutability": "view",
      "type": "function"
    },
    {
      "constant": true,
      "inputs": [
        {
          "internalType": "address",
          "name": "",
          "type": "address"
        }
      ],
      "name": "voters2",
      "outputs": [
        {
          "internalType": "bool",
          "name": "",
          "type": "bool"
        }
      ],
      "payable": false,
      "stateMutability": "view",
      "type": "function"
    },
    {
      "constant": true,
      "inputs": [
        {
          "internalType": "address",
          "name": "",
          "type": "address"
        }
      ],
      "name": "voters3",
      "outputs": [
        {
          "internalType": "bool",
          "name": "",
          "type": "bool"
        }
      ],
      "payable": false,
      "stateMutability": "view",
      "type": "function"
    },
    {
      "constant": true,
      "inputs": [
        {
          "internalType": "address",
          "name": "",
          "type": "address"
        }
      ],
      "name": "voters4",
      "outputs": [
        {
          "internalType": "bool",
          "name": "",
          "type": "bool"
        }
      ],
      "payable": false,
      "stateMutability": "view",
      "type": "function"
    },
    {
      "constant": true,
      "inputs": [
        {
          "internalType": "address",
          "name": "",
          "type": "address"
        }
      ],
      "name": "voters5",
      "outputs": [
        {
          "internalType": "bool",
          "name": "",
          "type": "bool"
        }
      ],
      "payable": false,
      "stateMutability": "view",
      "type": "function"
    },
    {
      "constant": false,
      "inputs": [
        {
          "internalType": "uint256",
          "name": "_addmark",
          "type": "uint256"
        },
        {
          "internalType": "address",
          "name": "_account",
          "type": "address"
        }
      ],
      "name": "addScore",
      "outputs": [],
      "payable": false,
      "stateMutability": "nonpayable",
      "type": "function"
    },
    {
      "constant": false,
      "inputs": [
        {
          "internalType": "uint256",
          "name": "_answerId",
          "type": "uint256"
        }
      ],
      "name": "vote1",
      "outputs": [],
      "payable": false,
      "stateMutability": "nonpayable",
      "type": "function"
    },
    {
      "constant": false,
      "inputs": [
        {
          "internalType": "uint256",
          "name": "_answerId",
          "type": "uint256"
        }
      ],
      "name": "vote2",
      "outputs": [],
      "payable": false,
      "stateMutability": "nonpayable",
      "type": "function"
    },
    {
      "constant": false,
      "inputs": [
        {
          "internalType": "uint256",
          "name": "_answerId",
          "type": "uint256"
        }
      ],
      "name": "vote3",
      "outputs": [],
      "payable": false,
      "stateMutability": "nonpayable",
      "type": "function"
    },
    {
      "constant": false,
      "inputs": [
        {
          "internalType": "uint256",
          "name": "_answerId",
          "type": "uint256"
        }
      ],
      "name": "vote4",
      "outputs": [],
      "payable": false,
      "stateMutability": "nonpayable",
      "type": "function"
    },
    {
      "constant": false,
      "inputs": [
        {
          "internalType": "uint256",
          "name": "_answerId",
          "type": "uint256"
        }
      ],
      "name": "vote5",
      "outputs": [],
      "payable": false,
      "stateMutability": "nonpayable",
      "type": "function"
    }
  ],
  "bytecode": "0x60806040523480156200001157600080fd5b50620000586040518060400160405280600b81526020017f43656e7472616c697a6564000000000000000000000000000000000000000000815250620002d460201b60201c565b6200009e6040518060400160405280600d81526020017f446563656e7472616c697a656400000000000000000000000000000000000000815250620002d460201b60201c565b620000e46040518060400160405280600981526020017f496d6d757461626c6500000000000000000000000000000000000000000000008152506200035260201b60201c565b6200012a6040518060400160405280600781526020017f4d757461626c65000000000000000000000000000000000000000000000000008152506200035260201b60201c565b620001706040518060400160405280600781526020017f426c6f636b203000000000000000000000000000000000000000000000000000815250620003d060201b60201c565b620001b66040518060400160405280600781526020017f426c6f636b203100000000000000000000000000000000000000000000000000815250620003d060201b60201c565b620001fc6040518060400160405280600781526020017f426974636f696e000000000000000000000000000000000000000000000000008152506200044e60201b60201c565b620002426040518060400160405280600b81526020017f48797065726c65646765720000000000000000000000000000000000000000008152506200044e60201b60201c565b620002886040518060400160405280600881526020017f457468657265756d000000000000000000000000000000000000000000000000815250620004cc60201b60201c565b620002ce6040518060400160405280600781526020017f426974636f696e00000000000000000000000000000000000000000000000000815250620004cc60201b60201c565b620005f9565b600a600081548092919060010191905055506040518060600160405280600a548152602001828152602001600081525060056000600a548152602001908152602001600020600082015181600001556020820151816001019080519060200190620003419291906200054a565b506040820151816002015590505050565b600a600081548092919060010191905055506040518060600160405280600a548152602001828152602001600081525060066000600a548152602001908152602001600020600082015181600001556020820151816001019080519060200190620003bf9291906200054a565b506040820151816002015590505050565b600a600081548092919060010191905055506040518060600160405280600a548152602001828152602001600081525060076000600a5481526020019081526020016000206000820151816000015560208201518160010190805190602001906200043d9291906200054a565b506040820151816002015590505050565b600a600081548092919060010191905055506040518060600160405280600a548152602001828152602001600081525060086000600a548152602001908152602001600020600082015181600001556020820151816001019080519060200190620004bb9291906200054a565b506040820151816002015590505050565b600a600081548092919060010191905055506040518060600160405280600a548152602001828152602001600081525060096000600a548152602001908152602001600020600082015181600001556020820151816001019080519060200190620005399291906200054a565b506040820151816002015590505050565b828054600181600116156101000203166002900490600052602060002090601f016020900481019282601f106200058d57805160ff1916838001178555620005be565b82800160010185558215620005be579182015b82811115620005bd578251825591602001919060010190620005a0565b5b509050620005cd9190620005d1565b5090565b620005f691905b80821115620005f2576000816000905550600101620005d8565b5090565b90565b61167c80620006096000396000f3fe608060405234801561001057600080fd5b50600436106101205760003560e01c80633ad8c3e4116100ad5780637bdb46b5116100715780637bdb46b514610698578063b03b85f5146106c6578063b22c25631461077b578063bb293bf414610830578063e2ca6eb71461085e57610120565b80633ad8c3e4146104d75780634dadf7d91461058c5780634ee5544c146105ba5780635b5ae91e146105e857806376dd110f1461060657610120565b8063275474c6116100f4578063275474c6146102875780632b6772d2146102e357806337d7ae8a1461033f57806338ca6d79146103f45780633ac25af8146104a957610120565b806292af1b1461012557806307e6dadd146101815780630ae6d02b146101dd57806315f8e40b1461022b575b600080fd5b6101676004803603602081101561013b57600080fd5b81019080803573ffffffffffffffffffffffffffffffffffffffff16906020019092919050505061087c565b604051808215151515815260200191505060405180910390f35b6101c36004803603602081101561019757600080fd5b81019080803573ffffffffffffffffffffffffffffffffffffffff16906020019092919050505061089c565b604051808215151515815260200191505060405180910390f35b610229600480360360408110156101f357600080fd5b8101908080359060200190929190803573ffffffffffffffffffffffffffffffffffffffff1690602001909291905050506108bc565b005b61026d6004803603602081101561024157600080fd5b81019080803573ffffffffffffffffffffffffffffffffffffffff169060200190929190505050610b71565b604051808215151515815260200191505060405180910390f35b6102c96004803603602081101561029d57600080fd5b81019080803573ffffffffffffffffffffffffffffffffffffffff169060200190929190505050610b91565b604051808215151515815260200191505060405180910390f35b610325600480360360208110156102f957600080fd5b81019080803573ffffffffffffffffffffffffffffffffffffffff169060200190929190505050610bb1565b604051808215151515815260200191505060405180910390f35b61036b6004803603602081101561035557600080fd5b8101908080359060200190929190505050610bd1565b6040518084815260200180602001838152602001828103825284818151815260200191508051906020019080838360005b838110156103b757808201518184015260208101905061039c565b50505050905090810190601f1680156103e45780820380516001836020036101000a031916815260200191505b5094505050505060405180910390f35b6104206004803603602081101561040a57600080fd5b8101908080359060200190929190505050610c93565b6040518084815260200180602001838152602001828103825284818151815260200191508051906020019080838360005b8381101561046c578082015181840152602081019050610451565b50505050905090810190601f1680156104995780820380516001836020036101000a031916815260200191505b5094505050505060405180910390f35b6104d5600480360360208110156104bf57600080fd5b8101908080359060200190929190505050610d55565b005b610503600480360360208110156104ed57600080fd5b8101908080359060200190929190505050610e9a565b6040518084815260200180602001838152602001828103825284818151815260200191508051906020019080838360005b8381101561054f578082015181840152602081019050610534565b50505050905090810190601f16801561057c5780820380516001836020036101000a031916815260200191505b5094505050505060405180910390f35b6105b8600480360360208110156105a257600080fd5b8101908080359060200190929190505050610f5c565b005b6105e6600480360360208110156105d057600080fd5b810190808035906020019092919050505061109f565b005b6105f06111e4565b6040518082815260200191505060405180910390f35b6106486004803603602081101561061c57600080fd5b81019080803573ffffffffffffffffffffffffffffffffffffffff1690602001909291905050506111ea565b604051808481526020018373ffffffffffffffffffffffffffffffffffffffff1673ffffffffffffffffffffffffffffffffffffffff168152602001828152602001935050505060405180910390f35b6106c4600480360360208110156106ae57600080fd5b8101908080359060200190929190505050611234565b005b6106f2600480360360208110156106dc57600080fd5b8101908080359060200190929190505050611378565b6040518084815260200180602001838152602001828103825284818151815260200191508051906020019080838360005b8381101561073e578082015181840152602081019050610723565b50505050905090810190601f16801561076b5780820380516001836020036101000a031916815260200191505b5094505050505060405180910390f35b6107a76004803603602081101561079157600080fd5b810190808035906020019092919050505061143a565b6040518084815260200180602001838152602001828103825284818151815260200191508051906020019080838360005b838110156107f35780820151818401526020810190506107d8565b50505050905090810190601f1680156108205780820380516001836020036101000a031916815260200191505b5094505050505060405180910390f35b61085c6004803603602081101561084657600080fd5b81019080803590602001909291905050506114fc565b005b610866611641565b6040518082815260200191505060405180910390f35b60016020528060005260406000206000915054906101000a900460ff1681565b60046020528060005260406000206000915054906101000a900460ff1681565b6000600c5414156109ae57600c600081548092919060010191905055506040518060600160405280600c5481526020018273ffffffffffffffffffffffffffffffffffffffff16815260200183815250600b60008373ffffffffffffffffffffffffffffffffffffffff1673ffffffffffffffffffffffffffffffffffffffff1681526020019081526020016000206000820151816000015560208201518160010160006101000a81548173ffffffffffffffffffffffffffffffffffffffff021916908373ffffffffffffffffffffffffffffffffffffffff16021790555060408201518160020155905050610b6d565b6000600b60008373ffffffffffffffffffffffffffffffffffffffff1673ffffffffffffffffffffffffffffffffffffffff168152602001908152602001600020600001541115610a895781600b60008373ffffffffffffffffffffffffffffffffffffffff1673ffffffffffffffffffffffffffffffffffffffff1681526020019081526020016000206002015401600b60008373ffffffffffffffffffffffffffffffffffffffff1673ffffffffffffffffffffffffffffffffffffffff16815260200190815260200160002060020181905550610b6c565b600c600081548092919060010191905055506040518060600160405280600c5481526020018273ffffffffffffffffffffffffffffffffffffffff16815260200183815250600b60008373ffffffffffffffffffffffffffffffffffffffff1673ffffffffffffffffffffffffffffffffffffffff1681526020019081526020016000206000820151816000015560208201518160010160006101000a81548173ffffffffffffffffffffffffffffffffffffffff021916908373ffffffffffffffffffffffffffffffffffffffff160217905550604082015181600201559050505b5b5050565b60036020528060005260406000206000915054906101000a900460ff1681565b60006020528060005260406000206000915054906101000a900460ff1681565b60026020528060005260406000206000915054906101000a900460ff1681565b6008602052806000526040600020600091509050806000015490806001018054600181600116156101000203166002900480601f016020809104026020016040519081016040528092919081815260200182805460018160011615610100020316600290048015610c835780601f10610c5857610100808354040283529160200191610c83565b820191906000526020600020905b815481529060010190602001808311610c6657829003601f168201915b5050505050908060020154905083565b6009602052806000526040600020600091509050806000015490806001018054600181600116156101000203166002900480601f016020809104026020016040519081016040528092919081815260200182805460018160011615610100020316600290048015610d455780601f10610d1a57610100808354040283529160200191610d45565b820191906000526020600020905b815481529060010190602001808311610d2857829003601f168201915b5050505050908060020154905083565b600260003373ffffffffffffffffffffffffffffffffffffffff1673ffffffffffffffffffffffffffffffffffffffff16815260200190815260200160002060009054906101000a900460ff1615610dac57600080fd5b600081118015610dbe5750600a548111155b610dc757600080fd5b6001600260003373ffffffffffffffffffffffffffffffffffffffff1673ffffffffffffffffffffffffffffffffffffffff16815260200190815260200160002060006101000a81548160ff02191690831515021790555060076000828152602001908152602001600020600201600081548092919060010191905055506005811415610e5e57610e596001336108bc565b610e6a565b610e696000336108bc565b5b807ffff3c900d938d21d0990d786e819f29b8d05c1ef587b462b939609625b684b1660405160405180910390a250565b6007602052806000526040600020600091509050806000015490806001018054600181600116156101000203166002900480601f016020809104026020016040519081016040528092919081815260200182805460018160011615610100020316600290048015610f4c5780601f10610f2157610100808354040283529160200191610f4c565b820191906000526020600020905b815481529060010190602001808311610f2f57829003601f168201915b5050505050908060020154905083565b6000803373ffffffffffffffffffffffffffffffffffffffff1673ffffffffffffffffffffffffffffffffffffffff16815260200190815260200160002060009054906101000a900460ff1615610fb257600080fd5b600081118015610fc45750600a548111155b610fcd57600080fd5b60016000803373ffffffffffffffffffffffffffffffffffffffff1673ffffffffffffffffffffffffffffffffffffffff16815260200190815260200160002060006101000a81548160ff021916908315150217905550600560008281526020019081526020016000206002016000815480929190600101919050555060028114156110635761105e6001336108bc565b61106f565b61106e6000336108bc565b5b807ffff3c900d938d21d0990d786e819f29b8d05c1ef587b462b939609625b684b1660405160405180910390a250565b600460003373ffffffffffffffffffffffffffffffffffffffff1673ffffffffffffffffffffffffffffffffffffffff16815260200190815260200160002060009054906101000a900460ff16156110f657600080fd5b6000811180156111085750600a548111155b61111157600080fd5b6001600460003373ffffffffffffffffffffffffffffffffffffffff1673ffffffffffffffffffffffffffffffffffffffff16815260200190815260200160002060006101000a81548160ff021916908315150217905550600960008281526020019081526020016000206002016000815480929190600101919050555060098114156111a8576111a36001336108bc565b6111b4565b6111b36000336108bc565b5b807ffff3c900d938d21d0990d786e819f29b8d05c1ef587b462b939609625b684b1660405160405180910390a250565b600c5481565b600b6020528060005260406000206000915090508060000154908060010160009054906101000a900473ffffffffffffffffffffffffffffffffffffffff16908060020154905083565b600160003373ffffffffffffffffffffffffffffffffffffffff1673ffffffffffffffffffffffffffffffffffffffff16815260200190815260200160002060009054906101000a900460ff161561128b57600080fd5b60008111801561129d5750600a548111155b6112a657600080fd5b60018060003373ffffffffffffffffffffffffffffffffffffffff1673ffffffffffffffffffffffffffffffffffffffff16815260200190815260200160002060006101000a81548160ff0219169083151502179055506006600082815260200190815260200160002060020160008154809291906001019190505550600381141561133c576113376001336108bc565b611348565b6113476000336108bc565b5b807ffff3c900d938d21d0990d786e819f29b8d05c1ef587b462b939609625b684b1660405160405180910390a250565b6006602052806000526040600020600091509050806000015490806001018054600181600116156101000203166002900480601f01602080910402602001604051908101604052809291908181526020018280546001816001161561010002031660029004801561142a5780601f106113ff5761010080835404028352916020019161142a565b820191906000526020600020905b81548152906001019060200180831161140d57829003601f168201915b5050505050908060020154905083565b6005602052806000526040600020600091509050806000015490806001018054600181600116156101000203166002900480601f0160208091040260200160405190810160405280929190818152602001828054600181600116156101000203166002900480156114ec5780601f106114c1576101008083540402835291602001916114ec565b820191906000526020600020905b8154815290600101906020018083116114cf57829003601f168201915b5050505050908060020154905083565b600360003373ffffffffffffffffffffffffffffffffffffffff1673ffffffffffffffffffffffffffffffffffffffff16815260200190815260200160002060009054906101000a900460ff161561155357600080fd5b6000811180156115655750600a548111155b61156e57600080fd5b6001600360003373ffffffffffffffffffffffffffffffffffffffff1673ffffffffffffffffffffffffffffffffffffffff16815260200190815260200160002060006101000a81548160ff02191690831515021790555060086000828152602001908152602001600020600201600081548092919060010191905055506008811415611605576116006001336108bc565b611611565b6116106000336108bc565b5b807ffff3c900d938d21d0990d786e819f29b8d05c1ef587b462b939609625b684b1660405160405180910390a250565b600a548156fea265627a7a72315820cec9b7ad68ee146750162de77b0cbd63a07a9810c11fdf1a769d8d3e3911221d64736f6c63430005100032",
  "source": "pragma solidity ^0.5.16;\r\n\r\ncontract Quiz {\r\n    // Model 5 Questions\r\n    struct answer1 {\r\n        uint id;\r\n        string name;\r\n        uint voteCount;\r\n    }\r\n\r\n    struct answer2 {\r\n        uint id;\r\n        string name;\r\n        uint voteCount;\r\n    }\r\n\r\n    struct answer3 {\r\n        uint id;\r\n        string name;\r\n        uint voteCount;\r\n    }\r\n\r\n    struct answer4 {\r\n        uint id;\r\n        string name;\r\n        uint voteCount;\r\n    }\r\n\r\n    struct answer5 {\r\n        uint id;\r\n        string name;\r\n        uint voteCount;\r\n    }\r\n\r\n    //Saving Scores \r\n    struct Score{\r\n        uint uid;\r\n        address account;\r\n        uint scoreCount;\r\n    }\r\n\r\n    //Store accounts that have voted\r\n    mapping(address => bool) public voters1;\r\n    mapping(address => bool) public voters2;\r\n    mapping(address => bool) public voters3;\r\n    mapping(address => bool) public voters4;\r\n    mapping(address => bool) public voters5;\r\n    \r\n    // Fetch answer\r\n    mapping(uint => answer1) public answers1;\r\n    mapping(uint => answer2) public answers2;\r\n    mapping(uint => answer3) public answers3;\r\n    mapping(uint => answer4) public answers4;\r\n    mapping(uint => answer5) public answers5;\r\n    \r\n    // Store answers Count\r\n    uint public answersCount;\r\n    \r\n    //Storing and Fetching scores\r\n    mapping(address => Score) public scores;\r\n\r\n    // Store number of scores\r\n    uint public NoOfScores;\r\n\r\n    //voted event\r\n    event votedEvent(\r\n        uint indexed _answerId\r\n    );\r\n\r\n    constructor() public {\r\n        addanswer1(\"Centralized\");\r\n        addanswer1(\"Decentralized\");\r\n        addanswer2(\"Immutable\");\r\n        addanswer2(\"Mutable\");\r\n        addanswer3(\"Block 0\");\r\n        addanswer3(\"Block 1\");\r\n        addanswer4(\"Bitcoin\");\r\n        addanswer4(\"Hyperledger\");\r\n        addanswer5(\"Ethereum\");\r\n        addanswer5(\"Bitcoin\");\r\n    }\r\n\r\n    function addanswer1 (string memory _name) private {\r\n        answersCount ++;\r\n        answers1[answersCount] = answer1(answersCount, _name, 0);\r\n    }\r\n\r\n    function addanswer2 (string memory _name) private {\r\n        answersCount ++;\r\n        answers2[answersCount] = answer2(answersCount, _name, 0);\r\n    }\r\n    \r\n    function addanswer3 (string memory _name) private {\r\n        answersCount ++;\r\n        answers3[answersCount] = answer3(answersCount, _name, 0);\r\n    }\r\n\r\n    function addanswer4 (string memory _name) private {\r\n        answersCount ++;\r\n        answers4[answersCount] = answer4(answersCount, _name, 0);\r\n    }\r\n\r\n    function addanswer5 (string memory _name) private {\r\n        answersCount ++;\r\n        answers5[answersCount] = answer5(answersCount, _name, 0);\r\n    }\r\n\r\n    function addScore (uint _addmark, address _account) public {\r\n        if(NoOfScores == 0){\r\n            NoOfScores++;\r\n            scores[_account] = Score(NoOfScores, _account,_addmark);\r\n        }else{\r\n            if (scores[_account].uid > 0){\r\n                scores[_account].scoreCount = scores[_account].scoreCount + _addmark;\r\n            }else{\r\n                NoOfScores++;\r\n                scores[_account] = Score(NoOfScores, _account,_addmark);\r\n            }\r\n        }\r\n    }\r\n\r\n    function vote1(uint _answerId) public {\r\n        // require that they haven't voted before\r\n        require(!voters1[msg.sender]);\r\n\r\n        // require a valid answer\r\n        require(_answerId > 0 && _answerId <= answersCount);\r\n\r\n        // record that voter has voted\r\n        voters1[msg.sender] = true;\r\n\r\n        // update answer vote Count\r\n        answers1[_answerId].voteCount ++;\r\n\r\n        //add quiz score\r\n        if(_answerId == 2){\r\n            addScore(1,msg.sender);\r\n        }else{\r\n            addScore(0,msg.sender);\r\n        }\r\n\r\n        // trigger voted event\r\n        emit votedEvent(_answerId);\r\n    }\r\n\r\n    function vote2(uint _answerId) public {\r\n        // require that they haven't voted before\r\n        require(!voters2[msg.sender]);\r\n\r\n        // require a valid answer\r\n        require(_answerId > 0 && _answerId <= answersCount);\r\n\r\n        // record that voter has voted\r\n        voters2[msg.sender] = true;\r\n\r\n        // update answer vote Count\r\n        answers2[_answerId].voteCount ++;\r\n\r\n        //add quiz score\r\n        if(_answerId == 3){\r\n            addScore(1,msg.sender);\r\n        }else{\r\n            addScore(0,msg.sender);\r\n        }\r\n\r\n        // trigger voted event\r\n        emit votedEvent(_answerId);\r\n    }\r\n\r\n    function vote3(uint _answerId) public {\r\n        // require that they haven't voted before\r\n        require(!voters3[msg.sender]);\r\n\r\n        // require a valid answer\r\n        require(_answerId > 0 && _answerId <= answersCount);\r\n\r\n        // record that voter has voted\r\n        voters3[msg.sender] = true;\r\n\r\n        // update answer vote Count\r\n        answers3[_answerId].voteCount ++;\r\n\r\n        //add quiz score\r\n        if(_answerId == 5){\r\n            addScore(1,msg.sender);\r\n        }else{\r\n            addScore(0,msg.sender);\r\n        }\r\n\r\n        // trigger voted event\r\n        emit votedEvent(_answerId);\r\n    }\r\n\r\n    function vote4(uint _answerId) public {\r\n        // require that they haven't voted before\r\n        require(!voters4[msg.sender]);\r\n\r\n        // require a valid answer\r\n        require(_answerId > 0 && _answerId <= answersCount);\r\n\r\n        // record that voter has voted\r\n        voters4[msg.sender] = true;\r\n\r\n        // update answer vote Count\r\n        answers4[_answerId].voteCount ++;\r\n\r\n        //add quiz score\r\n        if(_answerId == 8){\r\n            addScore(1,msg.sender);\r\n        }else{\r\n            addScore(0,msg.sender);\r\n        }\r\n\r\n        // trigger voted event\r\n        emit votedEvent(_answerId);\r\n    }\r\n\r\n    function vote5(uint _answerId) public {\r\n        // require that they haven't voted before\r\n        require(!voters5[msg.sender]);\r\n\r\n        // require a valid answer\r\n        require(_answerId > 0 && _answerId <= answersCount);\r\n\r\n        // record that voter has voted\r\n        voters5[msg.sender] = true;\r\n\r\n        // update answer vote Count\r\n        answers5[_answerId].voteCount ++;\r\n\r\n        //add quiz score\r\n        if(_answerId == 9){\r\n            addScore(1,msg.sender);\r\n        }else{\r\n            addScore(0,msg.sender);\r\n        }\r\n\r\n        // trigger voted event\r\n        emit votedEvent(_answerId);\r\n    }\r\n}\r\n",
  "sourcePath": "D:\\Coding Projects\\Polling-App\\contracts\\Quiz.sol",
  "compiler": {
    "name": "solc",
    "version": "0.5.16+commit.9c3226ce.Emscripten.clang"
  },
  "schemaVersion": "3.4.10",
  "updatedAt": "2022-10-09T09:52:27.486Z",
  "networkType": "ethereum",
  "devdoc": {
    "methods": {}
  },
  "userdoc": {
    "methods": {}
  }
}