{
  "contractName": "Quiz",
  "abi": [
    {
      "inputs": [],
      "payable": false,
      "stateMutability": "nonpayable",
      "type": "constructor"
    },
    {
      "anonymous": false,
      "inputs": [
        {
          "indexed": true,
          "internalType": "uint256",
          "name": "_candidateId",
          "type": "uint256"
        }
      ],
      "name": "votedEvent",
      "type": "event"
    },
    {
      "constant": true,
      "inputs": [],
      "name": "NoOfScores",
      "outputs": [
        {
          "internalType": "uint256",
          "name": "",
          "type": "uint256"
        }
      ],
      "payable": false,
      "stateMutability": "view",
      "type": "function"
    },
    {
      "constant": true,
      "inputs": [
        {
          "internalType": "uint256",
          "name": "",
          "type": "uint256"
        }
      ],
      "name": "candidates1",
      "outputs": [
        {
          "internalType": "uint256",
          "name": "id",
          "type": "uint256"
        },
        {
          "internalType": "string",
          "name": "name",
          "type": "string"
        },
        {
          "internalType": "uint256",
          "name": "voteCount",
          "type": "uint256"
        }
      ],
      "payable": false,
      "stateMutability": "view",
      "type": "function"
    },
    {
      "constant": true,
      "inputs": [
        {
          "internalType": "uint256",
          "name": "",
          "type": "uint256"
        }
      ],
      "name": "candidates2",
      "outputs": [
        {
          "internalType": "uint256",
          "name": "id",
          "type": "uint256"
        },
        {
          "internalType": "string",
          "name": "name",
          "type": "string"
        },
        {
          "internalType": "uint256",
          "name": "voteCount",
          "type": "uint256"
        }
      ],
      "payable": false,
      "stateMutability": "view",
      "type": "function"
    },
    {
      "constant": true,
      "inputs": [
        {
          "internalType": "uint256",
          "name": "",
          "type": "uint256"
        }
      ],
      "name": "candidates3",
      "outputs": [
        {
          "internalType": "uint256",
          "name": "id",
          "type": "uint256"
        },
        {
          "internalType": "string",
          "name": "name",
          "type": "string"
        },
        {
          "internalType": "uint256",
          "name": "voteCount",
          "type": "uint256"
        }
      ],
      "payable": false,
      "stateMutability": "view",
      "type": "function"
    },
    {
      "constant": true,
      "inputs": [
        {
          "internalType": "uint256",
          "name": "",
          "type": "uint256"
        }
      ],
      "name": "candidates4",
      "outputs": [
        {
          "internalType": "uint256",
          "name": "id",
          "type": "uint256"
        },
        {
          "internalType": "string",
          "name": "name",
          "type": "string"
        },
        {
          "internalType": "uint256",
          "name": "voteCount",
          "type": "uint256"
        }
      ],
      "payable": false,
      "stateMutability": "view",
      "type": "function"
    },
    {
      "constant": true,
      "inputs": [
        {
          "internalType": "uint256",
          "name": "",
          "type": "uint256"
        }
      ],
      "name": "candidates5",
      "outputs": [
        {
          "internalType": "uint256",
          "name": "id",
          "type": "uint256"
        },
        {
          "internalType": "string",
          "name": "name",
          "type": "string"
        },
        {
          "internalType": "uint256",
          "name": "voteCount",
          "type": "uint256"
        }
      ],
      "payable": false,
      "stateMutability": "view",
      "type": "function"
    },
    {
      "constant": true,
      "inputs": [],
      "name": "candidatesCount",
      "outputs": [
        {
          "internalType": "uint256",
          "name": "",
          "type": "uint256"
        }
      ],
      "payable": false,
      "stateMutability": "view",
      "type": "function"
    },
    {
      "constant": true,
      "inputs": [
        {
          "internalType": "address",
          "name": "",
          "type": "address"
        }
      ],
      "name": "scores",
      "outputs": [
        {
          "internalType": "uint256",
          "name": "uid",
          "type": "uint256"
        },
        {
          "internalType": "address",
          "name": "account",
          "type": "address"
        },
        {
          "internalType": "uint256",
          "name": "scoreCount",
          "type": "uint256"
        }
      ],
      "payable": false,
      "stateMutability": "view",
      "type": "function"
    },
    {
      "constant": true,
      "inputs": [
        {
          "internalType": "address",
          "name": "",
          "type": "address"
        }
      ],
      "name": "voters1",
      "outputs": [
        {
          "internalType": "bool",
          "name": "",
          "type": "bool"
        }
      ],
      "payable": false,
      "stateMutability": "view",
      "type": "function"
    },
    {
      "constant": true,
      "inputs": [
        {
          "internalType": "address",
          "name": "",
          "type": "address"
        }
      ],
      "name": "voters2",
      "outputs": [
        {
          "internalType": "bool",
          "name": "",
          "type": "bool"
        }
      ],
      "payable": false,
      "stateMutability": "view",
      "type": "function"
    },
    {
      "constant": true,
      "inputs": [
        {
          "internalType": "address",
          "name": "",
          "type": "address"
        }
      ],
      "name": "voters3",
      "outputs": [
        {
          "internalType": "bool",
          "name": "",
          "type": "bool"
        }
      ],
      "payable": false,
      "stateMutability": "view",
      "type": "function"
    },
    {
      "constant": true,
      "inputs": [
        {
          "internalType": "address",
          "name": "",
          "type": "address"
        }
      ],
      "name": "voters4",
      "outputs": [
        {
          "internalType": "bool",
          "name": "",
          "type": "bool"
        }
      ],
      "payable": false,
      "stateMutability": "view",
      "type": "function"
    },
    {
      "constant": true,
      "inputs": [
        {
          "internalType": "address",
          "name": "",
          "type": "address"
        }
      ],
      "name": "voters5",
      "outputs": [
        {
          "internalType": "bool",
          "name": "",
          "type": "bool"
        }
      ],
      "payable": false,
      "stateMutability": "view",
      "type": "function"
    },
    {
      "constant": false,
      "inputs": [
        {
          "internalType": "uint256",
          "name": "_addmark",
          "type": "uint256"
        },
        {
          "internalType": "address",
          "name": "_account",
          "type": "address"
        }
      ],
      "name": "addScore",
      "outputs": [],
      "payable": false,
      "stateMutability": "nonpayable",
      "type": "function"
    },
    {
      "constant": false,
      "inputs": [
        {
          "internalType": "uint256",
          "name": "_candidateId",
          "type": "uint256"
        }
      ],
      "name": "vote1",
      "outputs": [],
      "payable": false,
      "stateMutability": "nonpayable",
      "type": "function"
    },
    {
      "constant": false,
      "inputs": [
        {
          "internalType": "uint256",
          "name": "_candidateId",
          "type": "uint256"
        }
      ],
      "name": "vote2",
      "outputs": [],
      "payable": false,
      "stateMutability": "nonpayable",
      "type": "function"
    },
    {
      "constant": false,
      "inputs": [
        {
          "internalType": "uint256",
          "name": "_candidateId",
          "type": "uint256"
        }
      ],
      "name": "vote3",
      "outputs": [],
      "payable": false,
      "stateMutability": "nonpayable",
      "type": "function"
    },
    {
      "constant": false,
      "inputs": [
        {
          "internalType": "uint256",
          "name": "_candidateId",
          "type": "uint256"
        }
      ],
      "name": "vote4",
      "outputs": [],
      "payable": false,
      "stateMutability": "nonpayable",
      "type": "function"
    },
    {
      "constant": false,
      "inputs": [
        {
          "internalType": "uint256",
          "name": "_candidateId",
          "type": "uint256"
        }
      ],
      "name": "vote5",
      "outputs": [],
      "payable": false,
      "stateMutability": "nonpayable",
      "type": "function"
    }
  ],
  "bytecode": "0x60806040523480156200001157600080fd5b50620000586040518060400160405280600b81526020017f43616e6469646174652031000000000000000000000000000000000000000000815250620002d460201b60201c565b6200009e6040518060400160405280600b81526020017f43616e6469646174652032000000000000000000000000000000000000000000815250620002d460201b60201c565b620000e46040518060400160405280600b81526020017f43616e64696461746520310000000000000000000000000000000000000000008152506200035260201b60201c565b6200012a6040518060400160405280600b81526020017f43616e64696461746520320000000000000000000000000000000000000000008152506200035260201b60201c565b620001706040518060400160405280600b81526020017f43616e6469646174652031000000000000000000000000000000000000000000815250620003d060201b60201c565b620001b66040518060400160405280600b81526020017f43616e6469646174652032000000000000000000000000000000000000000000815250620003d060201b60201c565b620001fc6040518060400160405280600b81526020017f43616e64696461746520310000000000000000000000000000000000000000008152506200044e60201b60201c565b620002426040518060400160405280600b81526020017f43616e64696461746520320000000000000000000000000000000000000000008152506200044e60201b60201c565b620002886040518060400160405280600b81526020017f43616e6469646174652031000000000000000000000000000000000000000000815250620004cc60201b60201c565b620002ce6040518060400160405280600b81526020017f43616e6469646174652032000000000000000000000000000000000000000000815250620004cc60201b60201c565b620005f9565b600a600081548092919060010191905055506040518060600160405280600a548152602001828152602001600081525060056000600a548152602001908152602001600020600082015181600001556020820151816001019080519060200190620003419291906200054a565b506040820151816002015590505050565b600a600081548092919060010191905055506040518060600160405280600a548152602001828152602001600081525060066000600a548152602001908152602001600020600082015181600001556020820151816001019080519060200190620003bf9291906200054a565b506040820151816002015590505050565b600a600081548092919060010191905055506040518060600160405280600a548152602001828152602001600081525060076000600a5481526020019081526020016000206000820151816000015560208201518160010190805190602001906200043d9291906200054a565b506040820151816002015590505050565b600a600081548092919060010191905055506040518060600160405280600a548152602001828152602001600081525060086000600a548152602001908152602001600020600082015181600001556020820151816001019080519060200190620004bb9291906200054a565b506040820151816002015590505050565b600a600081548092919060010191905055506040518060600160405280600a548152602001828152602001600081525060096000600a548152602001908152602001600020600082015181600001556020820151816001019080519060200190620005399291906200054a565b506040820151816002015590505050565b828054600181600116156101000203166002900490600052602060002090601f016020900481019282601f106200058d57805160ff1916838001178555620005be565b82800160010185558215620005be579182015b82811115620005bd578251825591602001919060010190620005a0565b5b509050620005cd9190620005d1565b5090565b620005f691905b80821115620005f2576000816000905550600101620005d8565b5090565b90565b61167c80620006096000396000f3fe608060405234801561001057600080fd5b50600436106101205760003560e01c80633ac25af8116100ad5780635b5ae91e116100715780635b5ae91e146106bb57806376dd110f146106d95780637bdb46b51461076b578063b794216214610799578063bb293bf41461084e57610120565b80633ac25af8146104c75780633effeb08146104f55780634dadf7d9146105aa5780634ee5544c146105d857806350c9a9901461060657610120565b806323c7eef8116100f457806323c7eef814610287578063275474c61461033c5780632979d124146103985780632b6772d21461044d5780632d35a8a2146104a957610120565b806292af1b1461012557806307e6dadd146101815780630ae6d02b146101dd57806315f8e40b1461022b575b600080fd5b6101676004803603602081101561013b57600080fd5b81019080803573ffffffffffffffffffffffffffffffffffffffff16906020019092919050505061087c565b604051808215151515815260200191505060405180910390f35b6101c36004803603602081101561019757600080fd5b81019080803573ffffffffffffffffffffffffffffffffffffffff16906020019092919050505061089c565b604051808215151515815260200191505060405180910390f35b610229600480360360408110156101f357600080fd5b8101908080359060200190929190803573ffffffffffffffffffffffffffffffffffffffff1690602001909291905050506108bc565b005b61026d6004803603602081101561024157600080fd5b81019080803573ffffffffffffffffffffffffffffffffffffffff169060200190929190505050610b71565b604051808215151515815260200191505060405180910390f35b6102b36004803603602081101561029d57600080fd5b8101908080359060200190929190505050610b91565b6040518084815260200180602001838152602001828103825284818151815260200191508051906020019080838360005b838110156102ff5780820151818401526020810190506102e4565b50505050905090810190601f16801561032c5780820380516001836020036101000a031916815260200191505b5094505050505060405180910390f35b61037e6004803603602081101561035257600080fd5b81019080803573ffffffffffffffffffffffffffffffffffffffff169060200190929190505050610c53565b604051808215151515815260200191505060405180910390f35b6103c4600480360360208110156103ae57600080fd5b8101908080359060200190929190505050610c73565b6040518084815260200180602001838152602001828103825284818151815260200191508051906020019080838360005b838110156104105780820151818401526020810190506103f5565b50505050905090810190601f16801561043d5780820380516001836020036101000a031916815260200191505b5094505050505060405180910390f35b61048f6004803603602081101561046357600080fd5b81019080803573ffffffffffffffffffffffffffffffffffffffff169060200190929190505050610d35565b604051808215151515815260200191505060405180910390f35b6104b1610d55565b6040518082815260200191505060405180910390f35b6104f3600480360360208110156104dd57600080fd5b8101908080359060200190929190505050610d5b565b005b6105216004803603602081101561050b57600080fd5b8101908080359060200190929190505050610ea0565b6040518084815260200180602001838152602001828103825284818151815260200191508051906020019080838360005b8381101561056d578082015181840152602081019050610552565b50505050905090810190601f16801561059a5780820380516001836020036101000a031916815260200191505b5094505050505060405180910390f35b6105d6600480360360208110156105c057600080fd5b8101908080359060200190929190505050610f62565b005b610604600480360360208110156105ee57600080fd5b81019080803590602001909291905050506110a5565b005b6106326004803603602081101561061c57600080fd5b81019080803590602001909291905050506111ea565b6040518084815260200180602001838152602001828103825284818151815260200191508051906020019080838360005b8381101561067e578082015181840152602081019050610663565b50505050905090810190601f1680156106ab5780820380516001836020036101000a031916815260200191505b5094505050505060405180910390f35b6106c36112ac565b6040518082815260200191505060405180910390f35b61071b600480360360208110156106ef57600080fd5b81019080803573ffffffffffffffffffffffffffffffffffffffff1690602001909291905050506112b2565b604051808481526020018373ffffffffffffffffffffffffffffffffffffffff1673ffffffffffffffffffffffffffffffffffffffff168152602001828152602001935050505060405180910390f35b6107976004803603602081101561078157600080fd5b81019080803590602001909291905050506112fc565b005b6107c5600480360360208110156107af57600080fd5b8101908080359060200190929190505050611440565b6040518084815260200180602001838152602001828103825284818151815260200191508051906020019080838360005b838110156108115780820151818401526020810190506107f6565b50505050905090810190601f16801561083e5780820380516001836020036101000a031916815260200191505b5094505050505060405180910390f35b61087a6004803603602081101561086457600080fd5b8101908080359060200190929190505050611502565b005b60016020528060005260406000206000915054906101000a900460ff1681565b60046020528060005260406000206000915054906101000a900460ff1681565b6000600c5414156109ae57600c600081548092919060010191905055506040518060600160405280600c5481526020018273ffffffffffffffffffffffffffffffffffffffff16815260200183815250600b60008373ffffffffffffffffffffffffffffffffffffffff1673ffffffffffffffffffffffffffffffffffffffff1681526020019081526020016000206000820151816000015560208201518160010160006101000a81548173ffffffffffffffffffffffffffffffffffffffff021916908373ffffffffffffffffffffffffffffffffffffffff16021790555060408201518160020155905050610b6d565b6000600b60008373ffffffffffffffffffffffffffffffffffffffff1673ffffffffffffffffffffffffffffffffffffffff168152602001908152602001600020600001541115610a895781600b60008373ffffffffffffffffffffffffffffffffffffffff1673ffffffffffffffffffffffffffffffffffffffff1681526020019081526020016000206002015401600b60008373ffffffffffffffffffffffffffffffffffffffff1673ffffffffffffffffffffffffffffffffffffffff16815260200190815260200160002060020181905550610b6c565b600c600081548092919060010191905055506040518060600160405280600c5481526020018273ffffffffffffffffffffffffffffffffffffffff16815260200183815250600b60008373ffffffffffffffffffffffffffffffffffffffff1673ffffffffffffffffffffffffffffffffffffffff1681526020019081526020016000206000820151816000015560208201518160010160006101000a81548173ffffffffffffffffffffffffffffffffffffffff021916908373ffffffffffffffffffffffffffffffffffffffff160217905550604082015181600201559050505b5b5050565b60036020528060005260406000206000915054906101000a900460ff1681565b6007602052806000526040600020600091509050806000015490806001018054600181600116156101000203166002900480601f016020809104026020016040519081016040528092919081815260200182805460018160011615610100020316600290048015610c435780601f10610c1857610100808354040283529160200191610c43565b820191906000526020600020905b815481529060010190602001808311610c2657829003601f168201915b5050505050908060020154905083565b60006020528060005260406000206000915054906101000a900460ff1681565b6008602052806000526040600020600091509050806000015490806001018054600181600116156101000203166002900480601f016020809104026020016040519081016040528092919081815260200182805460018160011615610100020316600290048015610d255780601f10610cfa57610100808354040283529160200191610d25565b820191906000526020600020905b815481529060010190602001808311610d0857829003601f168201915b5050505050908060020154905083565b60026020528060005260406000206000915054906101000a900460ff1681565b600a5481565b600260003373ffffffffffffffffffffffffffffffffffffffff1673ffffffffffffffffffffffffffffffffffffffff16815260200190815260200160002060009054906101000a900460ff1615610db257600080fd5b600081118015610dc45750600a548111155b610dcd57600080fd5b6001600260003373ffffffffffffffffffffffffffffffffffffffff1673ffffffffffffffffffffffffffffffffffffffff16815260200190815260200160002060006101000a81548160ff02191690831515021790555060076000828152602001908152602001600020600201600081548092919060010191905055506005811415610e6457610e5f6001336108bc565b610e70565b610e6f6000336108bc565b5b807ffff3c900d938d21d0990d786e819f29b8d05c1ef587b462b939609625b684b1660405160405180910390a250565b6005602052806000526040600020600091509050806000015490806001018054600181600116156101000203166002900480601f016020809104026020016040519081016040528092919081815260200182805460018160011615610100020316600290048015610f525780601f10610f2757610100808354040283529160200191610f52565b820191906000526020600020905b815481529060010190602001808311610f3557829003601f168201915b5050505050908060020154905083565b6000803373ffffffffffffffffffffffffffffffffffffffff1673ffffffffffffffffffffffffffffffffffffffff16815260200190815260200160002060009054906101000a900460ff1615610fb857600080fd5b600081118015610fca5750600a548111155b610fd357600080fd5b60016000803373ffffffffffffffffffffffffffffffffffffffff1673ffffffffffffffffffffffffffffffffffffffff16815260200190815260200160002060006101000a81548160ff02191690831515021790555060056000828152602001908152602001600020600201600081548092919060010191905055506001811415611069576110646001336108bc565b611075565b6110746000336108bc565b5b807ffff3c900d938d21d0990d786e819f29b8d05c1ef587b462b939609625b684b1660405160405180910390a250565b600460003373ffffffffffffffffffffffffffffffffffffffff1673ffffffffffffffffffffffffffffffffffffffff16815260200190815260200160002060009054906101000a900460ff16156110fc57600080fd5b60008111801561110e5750600a548111155b61111757600080fd5b6001600460003373ffffffffffffffffffffffffffffffffffffffff1673ffffffffffffffffffffffffffffffffffffffff16815260200190815260200160002060006101000a81548160ff021916908315150217905550600960008281526020019081526020016000206002016000815480929190600101919050555060098114156111ae576111a96001336108bc565b6111ba565b6111b96000336108bc565b5b807ffff3c900d938d21d0990d786e819f29b8d05c1ef587b462b939609625b684b1660405160405180910390a250565b6009602052806000526040600020600091509050806000015490806001018054600181600116156101000203166002900480601f01602080910402602001604051908101604052809291908181526020018280546001816001161561010002031660029004801561129c5780601f106112715761010080835404028352916020019161129c565b820191906000526020600020905b81548152906001019060200180831161127f57829003601f168201915b5050505050908060020154905083565b600c5481565b600b6020528060005260406000206000915090508060000154908060010160009054906101000a900473ffffffffffffffffffffffffffffffffffffffff16908060020154905083565b600160003373ffffffffffffffffffffffffffffffffffffffff1673ffffffffffffffffffffffffffffffffffffffff16815260200190815260200160002060009054906101000a900460ff161561135357600080fd5b6000811180156113655750600a548111155b61136e57600080fd5b60018060003373ffffffffffffffffffffffffffffffffffffffff1673ffffffffffffffffffffffffffffffffffffffff16815260200190815260200160002060006101000a81548160ff02191690831515021790555060066000828152602001908152602001600020600201600081548092919060010191905055506003811415611404576113ff6001336108bc565b611410565b61140f6000336108bc565b5b807ffff3c900d938d21d0990d786e819f29b8d05c1ef587b462b939609625b684b1660405160405180910390a250565b6006602052806000526040600020600091509050806000015490806001018054600181600116156101000203166002900480601f0160208091040260200160405190810160405280929190818152602001828054600181600116156101000203166002900480156114f25780601f106114c7576101008083540402835291602001916114f2565b820191906000526020600020905b8154815290600101906020018083116114d557829003601f168201915b5050505050908060020154905083565b600360003373ffffffffffffffffffffffffffffffffffffffff1673ffffffffffffffffffffffffffffffffffffffff16815260200190815260200160002060009054906101000a900460ff161561155957600080fd5b60008111801561156b5750600a548111155b61157457600080fd5b6001600360003373ffffffffffffffffffffffffffffffffffffffff1673ffffffffffffffffffffffffffffffffffffffff16815260200190815260200160002060006101000a81548160ff0219169083151502179055506008600082815260200190815260200160002060020160008154809291906001019190505550600781141561160b576116066001336108bc565b611617565b6116166000336108bc565b5b807ffff3c900d938d21d0990d786e819f29b8d05c1ef587b462b939609625b684b1660405160405180910390a25056fea265627a7a72315820b0781f1a52cce9377705985327c7a45b2505146fd45daec2d8235b9db982f58764736f6c63430005100032",
  "source": "pragma solidity ^0.5.16;\r\n\r\ncontract Quiz {\r\n    // Model 5 Questions\r\n    struct Candidate1 {\r\n        uint id;\r\n        string name;\r\n        uint voteCount;\r\n    }\r\n\r\n    struct Candidate2 {\r\n        uint id;\r\n        string name;\r\n        uint voteCount;\r\n    }\r\n\r\n    struct Candidate3 {\r\n        uint id;\r\n        string name;\r\n        uint voteCount;\r\n    }\r\n\r\n    struct Candidate4 {\r\n        uint id;\r\n        string name;\r\n        uint voteCount;\r\n    }\r\n\r\n    struct Candidate5 {\r\n        uint id;\r\n        string name;\r\n        uint voteCount;\r\n    }\r\n\r\n    //Saving Scores \r\n    struct Score{\r\n        uint uid;\r\n        address account;\r\n        uint scoreCount;\r\n    }\r\n\r\n    //Store accounts that have voted\r\n    mapping(address => bool) public voters1;\r\n    mapping(address => bool) public voters2;\r\n    mapping(address => bool) public voters3;\r\n    mapping(address => bool) public voters4;\r\n    mapping(address => bool) public voters5;\r\n    \r\n    // Fetch Candidate\r\n    mapping(uint => Candidate1) public candidates1;\r\n    mapping(uint => Candidate2) public candidates2;\r\n    mapping(uint => Candidate3) public candidates3;\r\n    mapping(uint => Candidate4) public candidates4;\r\n    mapping(uint => Candidate5) public candidates5;\r\n    \r\n    // Store Candidates Count\r\n    uint public candidatesCount;\r\n    \r\n    //Storing and Fetching scores\r\n    mapping(address => Score) public scores;\r\n\r\n    // Store number of scores\r\n    uint public NoOfScores;\r\n\r\n    //voted event\r\n    event votedEvent(\r\n        uint indexed _candidateId\r\n    );\r\n\r\n    constructor() public {\r\n        addCandidate1(\"Candidate 1\");\r\n        addCandidate1(\"Candidate 2\");\r\n        addCandidate2(\"Candidate 1\");\r\n        addCandidate2(\"Candidate 2\");\r\n        addCandidate3(\"Candidate 1\");\r\n        addCandidate3(\"Candidate 2\");\r\n        addCandidate4(\"Candidate 1\");\r\n        addCandidate4(\"Candidate 2\");\r\n        addCandidate5(\"Candidate 1\");\r\n        addCandidate5(\"Candidate 2\");\r\n    }\r\n\r\n    function addCandidate1 (string memory _name) private {\r\n        candidatesCount ++;\r\n        candidates1[candidatesCount] = Candidate1(candidatesCount, _name, 0);\r\n    }\r\n\r\n    function addCandidate2 (string memory _name) private {\r\n        candidatesCount ++;\r\n        candidates2[candidatesCount] = Candidate2(candidatesCount, _name, 0);\r\n    }\r\n    \r\n    function addCandidate3 (string memory _name) private {\r\n        candidatesCount ++;\r\n        candidates3[candidatesCount] = Candidate3(candidatesCount, _name, 0);\r\n    }\r\n\r\n    function addCandidate4 (string memory _name) private {\r\n        candidatesCount ++;\r\n        candidates4[candidatesCount] = Candidate4(candidatesCount, _name, 0);\r\n    }\r\n\r\n    function addCandidate5 (string memory _name) private {\r\n        candidatesCount ++;\r\n        candidates5[candidatesCount] = Candidate5(candidatesCount, _name, 0);\r\n    }\r\n\r\n    function addScore (uint _addmark, address _account) public {\r\n        if(NoOfScores == 0){\r\n            NoOfScores++;\r\n            scores[_account] = Score(NoOfScores, _account,_addmark);\r\n        }else{\r\n            if (scores[_account].uid > 0){\r\n                scores[_account].scoreCount = scores[_account].scoreCount + _addmark;\r\n            }else{\r\n                NoOfScores++;\r\n                scores[_account] = Score(NoOfScores, _account,_addmark);\r\n            }\r\n        }\r\n    }\r\n\r\n    function vote1(uint _candidateId) public {\r\n        // require that they haven't voted before\r\n        require(!voters1[msg.sender]);\r\n\r\n        // require a valid candidate\r\n        require(_candidateId > 0 && _candidateId <= candidatesCount);\r\n\r\n        // record that voter has voted\r\n        voters1[msg.sender] = true;\r\n\r\n        // update candidate vote Count\r\n        candidates1[_candidateId].voteCount ++;\r\n\r\n        //add quiz score\r\n        if(_candidateId == 1){\r\n            addScore(1,msg.sender);\r\n        }else{\r\n            addScore(0,msg.sender);\r\n        }\r\n\r\n        // trigger voted event\r\n        emit votedEvent(_candidateId);\r\n    }\r\n\r\n    function vote2(uint _candidateId) public {\r\n        // require that they haven't voted before\r\n        require(!voters2[msg.sender]);\r\n\r\n        // require a valid candidate\r\n        require(_candidateId > 0 && _candidateId <= candidatesCount);\r\n\r\n        // record that voter has voted\r\n        voters2[msg.sender] = true;\r\n\r\n        // update candidate vote Count\r\n        candidates2[_candidateId].voteCount ++;\r\n\r\n        //add quiz score\r\n        if(_candidateId == 3){\r\n            addScore(1,msg.sender);\r\n        }else{\r\n            addScore(0,msg.sender);\r\n        }\r\n\r\n        // trigger voted event\r\n        emit votedEvent(_candidateId);\r\n    }\r\n\r\n    function vote3(uint _candidateId) public {\r\n        // require that they haven't voted before\r\n        require(!voters3[msg.sender]);\r\n\r\n        // require a valid candidate\r\n        require(_candidateId > 0 && _candidateId <= candidatesCount);\r\n\r\n        // record that voter has voted\r\n        voters3[msg.sender] = true;\r\n\r\n        // update candidate vote Count\r\n        candidates3[_candidateId].voteCount ++;\r\n\r\n        //add quiz score\r\n        if(_candidateId == 5){\r\n            addScore(1,msg.sender);\r\n        }else{\r\n            addScore(0,msg.sender);\r\n        }\r\n\r\n        // trigger voted event\r\n        emit votedEvent(_candidateId);\r\n    }\r\n\r\n    function vote4(uint _candidateId) public {\r\n        // require that they haven't voted before\r\n        require(!voters4[msg.sender]);\r\n\r\n        // require a valid candidate\r\n        require(_candidateId > 0 && _candidateId <= candidatesCount);\r\n\r\n        // record that voter has voted\r\n        voters4[msg.sender] = true;\r\n\r\n        // update candidate vote Count\r\n        candidates4[_candidateId].voteCount ++;\r\n\r\n        //add quiz score\r\n        if(_candidateId == 7){\r\n            addScore(1,msg.sender);\r\n        }else{\r\n            addScore(0,msg.sender);\r\n        }\r\n\r\n        // trigger voted event\r\n        emit votedEvent(_candidateId);\r\n    }\r\n\r\n    function vote5(uint _candidateId) public {\r\n        // require that they haven't voted before\r\n        require(!voters5[msg.sender]);\r\n\r\n        // require a valid candidate\r\n        require(_candidateId > 0 && _candidateId <= candidatesCount);\r\n\r\n        // record that voter has voted\r\n        voters5[msg.sender] = true;\r\n\r\n        // update candidate vote Count\r\n        candidates5[_candidateId].voteCount ++;\r\n\r\n        //add quiz score\r\n        if(_candidateId == 9){\r\n            addScore(1,msg.sender);\r\n        }else{\r\n            addScore(0,msg.sender);\r\n        }\r\n\r\n        // trigger voted event\r\n        emit votedEvent(_candidateId);\r\n    }\r\n}\r\n",
  "sourcePath": "D:\\Coding Projects\\Polling-App\\contracts\\Quiz.sol",
  "compiler": {
    "name": "solc",
    "version": "0.5.16+commit.9c3226ce.Emscripten.clang"
  },
  "schemaVersion": "3.4.10",
  "updatedAt": "2022-10-08T20:01:55.814Z",
  "networkType": "ethereum",
  "devdoc": {
    "methods": {}
  },
  "userdoc": {
    "methods": {}
  }
}